:100000000C942A000C94FF0C0C94320D0C94650D8A
:100010000C9447000C9447000C948E080C944700F5
:100020000C9447000C94C1080C94FA0A0C94910AA1
:100030000C9447000C9447000C9447000C94470024
:100040000C94BB120C9447000C9447000C9447008E
:100050000C94470011241FBECFE5D8E0DEBFCDBF12
:1000600011E0A0E6B0E0E0E6FDE402C005900D92EC
:10007000A83AB107D9F711E0A8EAB1E001C01D9292
:10008000A43DB107E1F70E945D1C0C94AE260C94D0
:100090000000EF92FF920F931F937B018C0120E0F1
:1000A00030E040E05FE40E94F50388238CF0C80153
:1000B000B70120E030E040E05FE40E94C1010E940F
:1000C00055049B01AC01205030404040504806C0D0
:1000D000C801B7010E9455049B01AC01B901CA01D6
:1000E0001F910F91FF90EF900895A0E0B0E0EBE733
:1000F000F0E00C94FB25DC012B01FA019C9192307D
:1001000008F439C1EB018881823008F433C194309E
:1001100069F4843009F02FC111969C91119789815F
:10012000981709F428C1ABE7B0E025C1843009F481
:1001300021C18230A9F4923009F01DC19A01AD01AC
:1001400088E0EA010990AE01E90109929E0181501F
:10015000C1F7E201898111969C918923818308C1AD
:10016000923009F407C112962D903C901397EB0141
:100170008A819B811496AD90BD90CD90DC901797AD
:10018000EC80FD800E811F819101281B390BB90184
:1001900037FF04C066277727621B730B6032710537
:1001A0000CF061C0121613066CF537014801062EDB
:1001B00004C096948794779467940A94D2F721E0C8
:1001C00030E040E050E004C0220F331F441F551FB1
:1001D0006A95D2F721503040404050402E213F21B7
:1001E00040235123211531054105510521F021E01E
:1001F00030E040E050E079018A01E628F72808293C
:1002000019293CC0232BD1F1260E371E350146019A
:10021000062E04C096948794779467940A94D2F734
:1002200021E030E040E050E004C0220F331F441FC3
:10023000551F6A95D2F721503040404050402A2146
:100240003B214C215D21211531054105510521F04E
:1002500021E030E040E050E059016A01A628B728CB
:10026000C828D9280BC0821593052CF01C01AA249C
:10027000BB24650103C0EE24FF24870111969C91E5
:10028000D20111968C91981709F445C0992339F041
:10029000A80197012A193B094C095D0906C0A6016E
:1002A00095012E193F09400B510B57FD08C01182D3
:1002B0003382228224833583468357831DC081E0A5
:1002C00081833382228288279927DC01821B930B4A
:1002D000A40BB50B84839583A683B7830DC0220F2F
:1002E000331F441F551F24833583468357838281E0
:1002F000938101979383828324813581468157813D
:10030000DA01C9010197A109B1098F5F9F4FAF4F72
:10031000BF4328F30BC0918333822282EA0CFB1C7B
:100320000C1D1D1DE482F5820683178383E0808304
:10033000248135814681578157FF1AC0C901AA27F8
:1003400097FDA095BA2F81709070A070B0705695EF
:10035000479537952795822B932BA42BB52B848318
:100360009583A683B7838281938101969383828349
:10037000DF0101C0D201CD01CDB7DEB7E2E10C94BF
:100380001726A0E2B0E0E7ECF1E00C9407266983C1
:100390007A838B839C832D833E834F835887E9E048
:1003A000EE2EF12CEC0EFD1ECE010196B7010E943F
:1003B00046068E010F5E1F4FCE010596B8010E94C2
:1003C00046068A8991E089278A8BC701B801AE0168
:1003D000475E5F4F0E9475000E947105A096E6E09F
:1003E0000C942326A0E2B0E0E8EFF1E00C9407269D
:1003F00069837A838B839C832D833E834F835887C5
:10040000F9E0EF2EF12CEC0EFD1ECE010196B701A6
:100410000E9446068E010F5E1F4FCE010596B80161
:100420000E944606C701B801AE01475E5F4F0E94B9
:1004300075000E947105A096E6E00C942326A0E2C8
:10044000B0E0E5E2F2E00C94FB2569837A838B83CC
:100450009C832D833E834F835887CE010196BE0136
:10046000675F7F4F0E944606CE010596BE016F5E14
:100470007F4F0E9446069985923088F089898230A4
:10048000C8F0943019F4823051F404C0843029F457
:10049000923081F48BE790E0C6C0923049F420E0BE
:1004A0009A858A89981321E02A87CE010996BBC0D4
:1004B000823049F420E09A858A89981321E02A8BBA
:1004C000CE014196B0C02D843E844F8458886D88FB
:1004D0007E888F88988CEE24FF248701AA24BB2471
:1004E000650140E050E060E070E0E0E0F0E0C10174
:1004F00081709070892BE9F0E60CF71C081D191D1E
:100500009A01AB012A0D3B1D4C1D5D1D80E090E062
:10051000A0E0B0E0E614F7040805190520F481E036
:1005200090E0A0E0B0E0BA01A901480F591F6A1F8E
:100530007B1FAA0CBB1CCC1CDD1C97FE08C081E0F5
:1005400090E0A0E0B0E0A82AB92ACA2ADB2A3196B6
:10055000E032F10549F0660C771C881C991C569412
:10056000479437942794C3CFFA85EA892B893C892D
:100570008B859C85280F391F2E5F3F4F17C0CA01FE
:1005800081709070892B61F016950795F794E79428
:1005900080E090E0A0E0B0E8E82AF92A0A2B1B2BC3
:1005A00076956795579547952F5F3F4F77FDE7CF36
:1005B0000CC0440F551F661F771F17FD4160EE0CDE
:1005C000FF1C001F111F21503040403090E05907A0
:1005D00090E0690790E4790760F32B8F3C8FDB0193
:1005E000CA018F779070A070B07080349105A1051A
:1005F000B10561F447FD0AC0E114F10401051105DC
:1006000029F0405C5F4F6F4F7F4F40781A8EFE1786
:1006100011F081E08A8F4D8F5E8F6F8F78A383E01A
:10062000898FCE0149960E947105A096E2E10C9453
:100630001726A8E1B0E0EFE1F3E00C94032669830C
:100640007A838B839C832D833E834F835887B9E0C5
:10065000EB2EF12CEC0EFD1ECE010196B7010E948F
:1006600046068E010F5E1F4FCE010596B8010E940F
:1006700046062985223008F47EC03989323010F4CC
:10068000B8017CC08A859A8989278A87243011F02D
:10069000223031F4231709F06EC06BE770E06EC0B2
:1006A000343039F41D861E861F86188A1C861B86E8
:1006B00004C0323021F484E08987B7015FC02B8504
:1006C0003C858B899C89281B390B3C872B87ED84C3
:1006D000FE840F851889AD88BE88CF88D88CEA142F
:1006E000FB040C051D0540F4EE0CFF1C001F111F40
:1006F000215030403C872B8720E030E040E050E044
:1007000080E090E0A0E0B0E460E070E0EA14FB0478
:100710000C051D0540F0282B392B4A2B5B2BEA18C2
:10072000FB080C091D09B695A79597958795EE0CC2
:10073000FF1C001F111F6F5F7F4F6F31710531F775
:10074000DA01C9018F779070A070B0708034910584
:10075000A105B10561F427FD0AC0E114F10401050A
:10076000110529F0205C3F4F4F4F5F4F20782D87B8
:100770003E874F87588BBE01675F7F4FCB010E943A
:1007800071056896EAE00C941F26A8E1B0E0EBEC56
:10079000F3E00C94072669837A838B839C832D83F3
:1007A0003E834F83588789E0E82EF12CEC0EFD1E26
:1007B000CE010196B7010E9446068E010F5E1F4FC3
:1007C000CE010596B8010E9446068985823040F028
:1007D0008989823028F0C701B8010E94BE0601C095
:1007E0008FEF6896E6E00C942326A8E1B0E0EBEFEB
:1007F000F3E00C94072669837A838B839C832D8393
:100800003E834F83588789E0E82EF12CEC0EFD1EC5
:10081000CE010196B7010E9446068E010F5E1F4F62
:10082000CE010596B8010E9446068985823040F0C7
:100830008989823028F0C701B8010E94BE0601C034
:100840008FEF6896E6E00C942326A8E1B0E0EBE297
:10085000F4E00C94072669837A838B839C832D8331
:100860003E834F83588789E0E82EF12CEC0EFD1E65
:10087000CE010196B7010E9446068E010F5E1F4F02
:10088000CE010596B8010E9446068985823040F067
:100890008989823028F0C701B8010E94BE0601C0D4
:1008A00081E06896E6E00C942326ACE0B0E0EBE54E
:1008B000F4E00C940B2669837A838B839C83CE01AE
:1008C0000196BE016B5F7F4F0E9446068D8182308C
:1008D00061F1823050F1843021F48E81882351F10E
:1008E0002EC02F81388537FD20C06E812F31310514
:1008F0001CF06623F9F023C08EE190E0821B930B7D
:1009000029853A854B855C8504C056954795379572
:1009100027958A95D2F76623B1F05095409530958A
:1009200021953F4F4F4F5F4F0EC020E030E040E039
:1009300050E009C02FEF3FEF4FEF5FE704C020E02A
:1009400030E040E050E8B901CA012C96E2E00C9496
:100950002726A8E0B0E0EFEAF4E00C9403267B0140
:100960008C01611571058105910519F482E0898377
:1009700060C083E089838EE1C82ED12CDC82CB82DB
:10098000ED82FE820F831887C801B7010E942205FD
:10099000FC013197F7FF3BC0222733272E1B3F0B6B
:1009A00057016801022E04C0D694C794B794A79447
:1009B0000A94D2F740E050E060E070E081E090E01F
:1009C000A0E0B0E004C0880F991FAA1FBB1F2A95A2
:1009D000D2F70197A109B1098E219F21A023B1234C
:1009E0000097A105B10521F041E050E060E070E022
:1009F0004A295B296C297D294D835E836F83788723
:100A00008EE190E08E1B9F0B9C838B8312C03097EE
:100A100081F00E2E04C0EE0CFF1C001F111F0A9463
:100A2000D2F7ED82FE820F831887CE1ADF0ADC82AE
:100A3000CB821A82CE0101960E9471052896EAE0C7
:100A40000C941F26EF92FF920F931F937B018C0152
:100A500080E0E81680E0F80681E0080780E01807EB
:100A600088F48FEFE816F1040105110531F028F044
:100A700088E090E0A0E0B0E017C080E090E0A0E067
:100A8000B0E012C080E0E81680E0F80680E00807D9
:100A900081E0180728F088E190E0A0E0B0E004C011
:100AA00080E190E0A0E0B0E020E230E040E050E003
:100AB000281B390B4A0B5B0B04C016950795F7945E
:100AC000E7948A95D2F7F701ED57FF4F8081281BF5
:100AD000310941095109C9011F910F91FF90EF9010
:100AE0000895DF92EF92FF920F931F93FC01E48031
:100AF000F58006811781D1808081823048F480E0C2
:100B000090E0A0E1B0E0E82AF92A0A2B1B2BA5C04F
:100B1000843009F49FC0823021F4EE24FF24870141
:100B200005C0E114F1040105110519F4E0E0F0E05D
:100B300096C0628173819FEF623879070CF05BC0C9
:100B400022E83FEF261B370B2A3131052CF020E03D
:100B500030E040E050E02AC0B801A701022E04C0F6
:100B600076956795579547950A94D2F781E090E07E
:100B7000A0E0B0E004C0880F991FAA1FBB1F2A95F0
:100B8000D2F70197A109B1098E219F21A023B1239A
:100B90000097A105B10521F081E090E0A0E0B0E070
:100BA0009A01AB01282B392B4A2B5B2BDA01C901A7
:100BB0008F779070A070B07080349105A105B10559
:100BC00039F427FF09C0205C3F4F4F4F5F4F04C0EF
:100BD000215C3F4F4F4F5F4FE0E0F0E02030A0E05E
:100BE0003A07A0E04A07A0E45A0710F0E1E0F0E07D
:100BF00079018A0127C06038710564F5FB01E1586D
:100C0000FF4FD801C7018F779070A070B07080340B
:100C10009105A105B10539F4E7FE0DC080E490E02F
:100C2000A0E0B0E004C08FE390E0A0E0B0E0E80E08
:100C3000F91E0A1F1B1F17FF05C016950795F7948D
:100C4000E794319687E016950795F794E7948A958F
:100C5000D1F705C0EE24FF248701EFEFF0E06E2FFF
:100C6000679566276795902F9F77D794DD24D79453
:100C70008E2F8695492F462B582F5D29B701CA0123
:100C80001F910F91FF90EF90DF900895FC01DB0121
:100C9000408151812281622F6F7770E0221F2227CD
:100CA000221F9381892F880F822B282F30E0991FD4
:100CB0009927991F11969C93119721153105A9F534
:100CC000411551056105710511F482E037C082E8D4
:100CD0009FEF13969C938E9312979A01AB0167E056
:100CE000220F331F441F551F6A95D1F783E08C9361
:100CF0000DC0220F331F441F551F12968D919C91DA
:100D00001397019713969C938E931297203080E04F
:100D1000380780E0480780E4580758F314962D936D
:100D20003D934D935C93179708952F3F310579F4C8
:100D3000411551056105710519F484E08C930895FE
:100D400064FF03C081E08C9312C01C9210C02F5727
:100D5000304013963C932E93129783E08C9387E058
:100D6000440F551F661F771F8A95D1F7706414963C
:100D70004D935D936D937C93179708951F93DC01BA
:100D8000FB019C91923008F447C08081823008F4C6
:100D900043C0943051F411961C91843099F58181AF
:100DA000682F70E0611B71093FC0843021F09230E0
:100DB00031F48230B9F18181882389F12DC01196F7
:100DC0001C9111978230F1F081811817D9F4129695
:100DD0002D913C911397828193818217930794F010
:100DE00028173907BCF014968D919D910D90BC91F8
:100DF000A02D2481358146815781281739074A075C
:100E00005B0718F4112341F00AC082179307A40767
:100E1000B50740F4112319F061E070E005C06FEFF1
:100E20007FEF02C060E070E0CB011F910895DF9377
:100E3000CF93CDB7DEB7A1E4B0E0E1E4F0E080818C
:100E400088608C9382E0CF91DF910895DF93CF93F8
:100E5000CDB7DEB7A1E4B0E0E1E4F0E080818861E5
:100E60008C93E1E4F0E0108282E0CF91DF9108956D
:100E7000DF93CF9300D0CDB7DEB78A8382E089833A
:100E80008A81883080F4A1E4B0E0E1E4F0E0808180
:100E9000887F8C93A1E4B0E0E1E4F0E090818A8166
:100EA000892B8C9301C0198289810F900F90CF916B
:100EB000DF910895DF93CF93CDB7DEB7A89582E099
:100EC000CF91DF910895DF93CF930F92CDB7DEB727
:100ED000AFE4B0E0EFE4F0E080818E7F8C93AFE48C
:100EE000B0E0EFE4F0E080818D7F8C93AEE4B0E081
:100EF000EEE4F0E08081877F8C93AEE4B0E0EEE436
:100F0000F0E080818F7E8C930F90CF91DF910895D8
:100F1000DF93CF930F92CDB7DEB7AEE4B0E0EEE44F
:100F2000F0E08081887F8C93AEE4B0E0EEE4F0E006
:100F3000808184608C930F90CF91DF910895DF932F
:100F4000CF930F92CDB7DEB7AEE4B0E0EEE4F0E0C1
:100F50008081887F8C930F90CF91DF910895DF93EC
:100F6000CF9300D000D0CDB7DEB79B838A8382E0D9
:100F700089838A819B81009719F481E0898306C067
:100F80008A819B819093A9018093A8010F900F9073
:100F90000F900F90CF91DF910895DF93CF930F9231
:100FA000CDB7DEB782E08983A9E5B0E0E9E5F0E0FE
:100FB000808184608C9389810F90CF91DF91089517
:100FC000DF93CF930F92CDB7DEB782E08983A9E597
:100FD000B0E0E9E5F0E080818B7F8C9389810F9010
:100FE000CF91DF910895DF93CF930F92CDB7DEB706
:100FF00081E00E945D080F90CF91DF910895DF930B
:10100000CF930F92CDB7DEB7A9E5B0E0E9E5F0E008
:10101000808180628C930F90CF91DF910895DF9350
:10102000CF930F92CDB7DEB7A9E5B0E0E9E5F0E0E8
:1010300080818F7D8C930F90CF91DF910895DF9306
:10104000CF9300D00F92CDB7DEB79B838A8382E027
:1010500089838A819B81009739F08A819B81909353
:10106000AB018093AA0102C081E0898389810F903E
:101070000F900F90CF91DF910895DF93CF9300D021
:101080000F92CDB7DEB79B838A8382E089838A8102
:101090009B81009749F0E6E4F0E080819181EA814C
:1010A000FB819183808302C081E0898389810F90D5
:1010B0000F900F90CF91DF910895DF93CF9300D0E1
:1010C00000D0CDB7DEB78A8382E089838A81282F5A
:1010D00030E03C832B838B819C81009731F02B8106
:1010E0003C812130310549F010C0AEE4B0E0EEE4BF
:1010F000F0E080818F7B8C9309C0AEE4B0E0EEE439
:10110000F0E0808180648C9301C0198289810F9006
:101110000F900F900F90CF91DF9108951F920F9233
:101120000FB60F9211242F933F934F935F936F93BA
:101130007F938F939F93AF93BF93EF93FF93DF932F
:10114000CF93CDB7DEB78091AA019091AB01009704
:1011500029F0E091AA01F091AB010995CF91DF91BF
:10116000FF91EF91BF91AF919F918F917F916F917F
:101170005F914F913F912F910F900FBE0F901F9055
:1011800018951F920F920FB60F9211242F933F9331
:101190004F935F936F937F938F939F93AF93BF937F
:1011A000EF93FF93DF93CF93CDB7DEB78091A80184
:1011B0009091A901009729F0E091A801F091A9016F
:1011C0000995CF91DF91FF91EF91BF91AF919F91E1
:1011D0008F917F916F915F914F913F912F910F90E0
:1011E0000FBE0F901F901895DF93CF930F92CDB73E
:1011F000DEB7A3E5B0E0E3E5F0E08081877B8C9388
:10120000A3E5B0E0E3E5F0E0808180648C93A3E5A2
:10121000B0E0E3E5F0E080818F7C8C93A3E5B0E063
:10122000E3E5F0E08081806F8C930F90CF91DF91A8
:101230000895DF93CF930F92CDB7DEB7A3E5B0E06B
:10124000E3E5F0E08081887F8C93A3E5B0E0E3E5FF
:10125000F0E0808184608C930F90CF91DF910895AE
:10126000DF93CF930F92CDB7DEB7A3E5B0E0E3E510
:10127000F0E08081887F8C930F90CF91DF9108956B
:10128000DF93CF9300D000D000D0CDB7DEB78A83F4
:101290007C836B8382E089838B819C81009719F426
:1012A00081E089831EC08A81282F30E03E832D8310
:1012B0008D819E81009731F02D813E812130310555
:1012C00041F00EC08B819C819093AD018093AC0165
:1012D00008C08B819C819093AF018093AE0101C0C7
:1012E0001982898126960FB6F894DEBF0FBECDBF56
:1012F000CF91DF910895DF93CF93CDB7DEB7A59758
:101300000FB6F894DEBF0FBECDBF6D8F7E8F8F8F6F
:1013100098A3CE0109969AA389A3E4E8F1E0FCA37F
:10132000EBA3F4E1FDA3EBA1FCA100808BA19CA1A8
:1013300001969CA38BA3E9A1FAA1008289A19AA19D
:1013400001969AA389A39DA191509DA3EDA1EE239F
:1013500051F78D899E89AF89B88DBC01CD010E945E
:10136000A904DC01CB01BC01CD0120E030E040E864
:1013700051E40E941903DC01CB018D839E83AF836E
:10138000B8878D8D9E8DAF8DB8A128EE33E040E0FB
:1013900050E0BC01CD010E946C25DC01CB01BC01F9
:1013A000CD010E94A904DC01CB01BC01CD012D813E
:1013B0003E814F8158850E941903DC01CB01BC019D
:1013C000CD010E944900DC01CB0189839A83AB8364
:1013D000BC8382E0A5960FB6F894DEBF0FBECDBFEA
:1013E000CF91DF910895DF93CF9300D000D0CDB798
:1013F000DEB78A8382E089838A81282F30E03C83AC
:101400002B838B819C81009731F02B813C81213093
:10141000310549F010C0A9E5B0E0E9E5F0E08081D0
:1014200081608C9309C0A9E5B0E0E9E5F0E0808136
:1014300082608C9301C0198289810F900F900F9068
:101440000F90CF91DF910895DF93CF9300D000D01C
:10145000CDB7DEB78A8382E089838A81282F30E086
:101460003C832B838B819C81009731F02B813C81C5
:101470002130310549F010C0A9E5B0E0E9E5F0E020
:1014800080818E7F8C9309C0A9E5B0E0E9E5F0E0AA
:1014900080818D7F8C9301C0198289810F900F907C
:1014A0000F900F90CF91DF910895DF93CF930F921C
:1014B000CDB7DEB78983ECE5F0E08981808382E0F7
:1014C0000F90CF91DF910895DF93CF9300D0CDB7E8
:1014D000DEB78A8382E089838A818536D8F4ECE599
:1014E000F0E08A81482F50E0CA019C01220F331F8F
:1014F000C9019695982F882797958795821B930BFE
:10150000840F951F24E630E0B9010E949725CB0196
:10151000808301C0198282E00F900F90CF91DF91FC
:1015200008951F920F920FB60F9211242F933F939D
:101530004F935F936F937F938F939F93AF93BF93DB
:10154000EF93FF93DF93CF93CDB7DEB78091B901CF
:101550009091BA01A091BB01B091BC010196A11D6F
:10156000B11D8093B9019093BA01A093BB01B093D0
:10157000BC012091B9013091BA014091BB01509159
:10158000BC018091B0019091B101A091B201B091E4
:10159000B301281739074A075B07C9F4E2E5F0E011
:1015A0008091B401819580838091AC019091AD01CF
:1015B000009729F0E091AC01F091AD0109951092EE
:1015C000B9011092BA011092BB011092BC01CF91E7
:1015D000DF91FF91EF91BF91AF919F918F917F919B
:1015E0006F915F914F913F912F910F900FBE0F9090
:1015F0001F9018951F920F920FB60F9211242F93E0
:101600003F934F935F936F937F938F939F93AF938A
:10161000BF93EF93FF93DF93CF93CDB7DEB7809166
:10162000BD019091BE01A091BF01B091C001019692
:10163000A11DB11D8093BD019093BE01A093BF0178
:10164000B093C0012091BD013091BE014091BF0116
:101650005091C0018091B5019091B601A091B70160
:10166000B091B801281739074A075B0799F410921F
:10167000BD011092BE011092BF011092C001809175
:10168000AE019091AF01009729F0E091AE01F09189
:10169000AF010995CF91DF91FF91EF91BF91AF918C
:1016A0009F918F917F916F915F914F913F912F917A
:1016B0000F900FBE0F901F901895DF93CF930F924E
:1016C000CDB7DEB7A1E2B0E0E1E2F0E080818E7F4D
:1016D0008C93A1E2B0E0E1E2F0E080818D7F8C9319
:1016E000E0E2F0E082E08083A6E5B0E0E6E5F0E04D
:1016F000808184608C930F90CF91DF910895DF9368
:10170000CF93CDB7DEB7E6E5F0E084EA8083E6E587
:10171000F0E080818823DCF782E0CF91DF910895AB
:10172000DF93CF93CDB7DEB7E6E5F0E084E98083C1
:1017300082E0CF91DF910895DF93CF930F92CDB7E1
:10174000DEB78983E3E2F0E089818083E6E5F0E0BB
:1017500084E88083E6E5F0E080818823DCF782E09E
:101760000F90CF91DF910895DF93CF9300D0CDB745
:10177000DEB79A838983E6E5F0E084EC8083E6E5D2
:10178000F0E080818823DCF7E3E2F0E08081E9810A
:10179000FA81808382E00F900F90CF91DF910895BE
:1017A000DF93CF9300D0CDB7DEB79A838983E6E588
:1017B000F0E084E88083E6E5F0E080818823DCF7D0
:1017C000E3E2F0E08081E981FA81808382E00F909A
:1017D0000F90CF91DF910895DF93CF9300D0CDB7D5
:1017E000DEB79A838983E1E2F0E08081887FE98136
:1017F000FA81808382E00F900F90CF91DF9108955E
:10180000DF93CF93CDB7DEB7789482E0CF91DF91AD
:101810000895DF93CF93CDB7DEB7F89482E0CF91F0
:10182000DF910895DF93CF9300D000D000D0CDB7E3
:10183000DEB78A836B8382E089838B81843010F0EA
:10184000198262C08A81282F30E03D832C838C81ED
:101850009D818630910559F02C813D8127303105DD
:10186000B1F08C819D818530910541F139C0A5E5AC
:10187000B0E0E5E5F0E080818C7F8C93A5E5B0E0F9
:10188000E5E5F0E090818B81892B8C932AC0A5E55A
:10189000B0E0E5E5F0E08081837F8C93A5E5B0E0E2
:1018A000E5E5F0E08081282F8B81882F90E0880F7C
:1018B000991F880F991F822B8C9313C0A4E5B0E069
:1018C000E4E5F0E080818F7B8C93A4E5B0E0E4E573
:1018D000F0E08081982F8B818074892B8C9301C0DC
:1018E0001982ABE5B0E0EBE5F0E08081482F8A811A
:1018F000282F30E081E090E0022E02C0880F991F6F
:101900000A94E2F7842B8C9326960FB6F894DEBFE8
:101910000FBECDBFCF91DF910895DF93CF9300D05D
:10192000CDB7DEB78A8382E089838A818530C0F0B3
:101930008A818830A8F4ABE5B0E0EBE5F0E0808187
:10194000482F8A81282F30E081E090E0022E02C0EB
:10195000880F991F0A94E2F7809584238C9301C025
:10196000198289810F900F90CF91DF910895DF93B5
:10197000CF9300D000D000D0CDB7DEB78A837C8370
:101980006B8382E089838B819C81009719F481E0CD
:1019900089832BC08A81282F30E03E832D838D815F
:1019A0009E818630910559F02D813E812730310589
:1019B00069F08D819E818530910579F015C08B810C
:1019C0009C819093C2018093C1010FC08B819C8147
:1019D0009093C4018093C30108C08B819C81909334
:1019E000C6018093C50101C01982898126960FB670
:1019F000F894DEBF0FBECDBFCF91DF9108951F9247
:101A00000F920FB60F9211242F933F934F935F9332
:101A10006F937F938F939F93AF93BF93EF93FF93B6
:101A2000DF93CF93CDB7DEB78091C1019091C20112
:101A3000009729F0E091C101F091C2010995CF9181
:101A4000DF91FF91EF91BF91AF919F918F917F9126
:101A50006F915F914F913F912F910F900FBE0F901B
:101A60001F9018951F920F920FB60F9211242F936B
:101A70003F934F935F936F937F938F939F93AF9316
:101A8000BF93EF93FF93DF93CF93CDB7DEB78091F2
:101A9000C3019091C401009729F0E091C301F09136
:101AA000C4010995CF91DF91FF91EF91BF91AF9163
:101AB0009F918F917F916F915F914F913F912F9166
:101AC0000F900FBE0F901F9018951F920F920FB698
:101AD0000F9211242F933F934F935F936F937F93B4
:101AE0008F939F93AF93BF93EF93FF93DF93CF9326
:101AF000CDB7DEB78091C5019091C601009729F05E
:101B0000E091C501F091C6010995CF91DF91FF9158
:101B1000EF91BF91AF919F918F917F916F915F9165
:101B20004F913F912F910F900FBE0F901F901895DE
:101B3000DF93CF93CDB7DEB766970FB6F894DEBFCD
:101B40000FBECDBF89876A8789859AE0692F0E9479
:101B50008B25882F90E0A0E0B0E08D839E83AF833B
:101B6000B88789859AE0692F0E948B25892F882F55
:101B700090E0A0E0B0E089839A83AB83BC838D8141
:101B80009E81AF81B8858B8B9C8BAD8BBE8B8B89F7
:101B90009C89AD89BE8982309105A105B10509F402
:101BA0005FC08B899C89AD89BE8983309105A10571
:101BB000B10550F48B899C89AD89BE89813091052E
:101BC000A105B105B1F0F0C08B899C89AD89BE89B2
:101BD00083309105A105B10509F479C08B899C89F1
:101BE000AD89BE8984309105A105B10509F4A6C06F
:101BF000DBC08A85A82FB0E0BA8BA98B29893A89E6
:101C00002115310531F089899A8981309105A9F032
:101C1000CBC0AAE3B0E0EAE3F0E08081482F29815D
:101C20003A8181E090E0022E02C0880F991F0A9449
:101C3000E2F7809584238C93B7C0AAE3B0E0EAE38F
:101C4000F0E08081482F29813A8181E090E0022EE6
:101C500002C0880F991F0A94E2F7842B8C93A4C0CA
:101C60008A85A82FB0E0B88BAF872F8538892115DA
:101C7000310531F08F85988981309105A9F094C0A4
:101C8000A7E3B0E0E7E3F0E08081482F29813A81C3
:101C900081E090E0022E02C0880F991F0A94E2F7BB
:101CA000809584238C9380C0A7E3B0E0E7E3F0E065
:101CB0008081482F29813A8181E090E0022E02C084
:101CC000880F991F0A94E2F7842B8C936DC08A8544
:101CD000A82FB0E0BE87AD872D853E852115310543
:101CE00031F08D859E8581309105A9F05DC0A4E31A
:101CF000B0E0E4E3F0E08081482F29813A8181E07F
:101D000090E0022E02C0880F991F0A94E2F7809596
:101D100084238C9349C0A4E3B0E0E4E3F0E0808145
:101D2000482F29813A8181E090E0022E02C0880F7D
:101D3000991F0A94E2F7842B8C9336C08A85A82FCA
:101D4000B0E0BC87AB872B853C852115310531F090
:101D50008B859C8581309105A9F026C0A1E3B0E078
:101D6000E1E3F0E08081482F29813A8181E090E031
:101D7000022E02C0880F991F0A94E2F780958423EF
:101D80008C9312C0A1E3B0E0E1E3F0E08081482F42
:101D900029813A8181E090E0022E02C0880F991FCC
:101DA0000A94E2F7842B8C9366960FB6F894DEBF04
:101DB0000FBECDBFCF91DF910895DF93CF93CDB705
:101DC000DEB766970FB6F894DEBF0FBECDBF89872A
:101DD0006A8789859AE0692F0E948B25882F90E079
:101DE000A0E0B0E08D839E83AF83B88789859AE0B9
:101DF000692F0E948B25892F882F90E0A0E0B0E00A
:101E000089839A83AB83BC838D819E81AF81B885A2
:101E10008B8B9C8BAD8BBE8B8B899C89AD89BE894E
:101E200082309105A105B10509F45FC08B899C89B9
:101E3000AD89BE8983309105A105B10550F48B8928
:101E40009C89AD89BE8981309105A105B105B1F0AC
:101E5000F0C08B899C89AD89BE8983309105A1052D
:101E6000B10509F479C08B899C89AD89BE8984301C
:101E70009105A105B10509F4A6C0DBC08A85A82F8C
:101E8000B0E0BA8BA98B29893A892115310531F047
:101E900089899A8981309105A9F0CBC0ABE3B0E084
:101EA000EBE3F0E08081482F29813A8181E090E0E6
:101EB000022E02C0880F991F0A94E2F780958423AE
:101EC0008C93B7C0ABE3B0E0EBE3F0E08081482F48
:101ED00029813A8181E090E0022E02C0880F991F8B
:101EE0000A94E2F7842B8C93A4C08A85A82FB0E0D3
:101EF000B88BAF872F8538892115310531F08F8553
:101F0000988981309105A9F094C0A8E3B0E0E8E396
:101F1000F0E08081482F29813A8181E090E0022E13
:101F200002C0880F991F0A94E2F7809584238C934E
:101F300080C0A8E3B0E0E8E3F0E08081482F298189
:101F40003A8181E090E0022E02C0880F991F0A9426
:101F5000E2F7842B8C936DC08A85A82FB0E0BE87F2
:101F6000AD872D853E852115310531F08D859E8506
:101F700081309105A9F05DC0A5E3B0E0E5E3F0E0B4
:101F80008081482F29813A8181E090E0022E02C0B1
:101F9000880F991F0A94E2F7809584238C9349C097
:101FA000A5E3B0E0E5E3F0E08081482F29813A81A4
:101FB00081E090E0022E02C0880F991F0A94E2F798
:101FC000842B8C9336C08A85A82FB0E0BC87AB8762
:101FD0002B853C852115310531F08B859C85813021
:101FE0009105A9F026C0A2E3B0E0E2E3F0E0808131
:101FF000482F29813A8181E090E0022E02C0880FAB
:10200000991F0A94E2F7809584238C9312C0A2E36F
:10201000B0E0E2E3F0E08081482F29813A8181E05D
:1020200090E0022E02C0880F991F0A94E2F7842BD9
:102030008C9366960FB6F894DEBF0FBECDBFCF91DE
:10204000DF910895DF93CF9300D000D0CDB7DEB7F6
:1020500089836A838981282F30E03C832B838B819D
:102060009C8182309105D9F02B813C812330310550
:1020700034F48B819C818130910561F01EC02B81ED
:102080003C812330310581F08B819C818430910526
:1020900081F013C0EBE3F0E08A8180830EC0E8E3B7
:1020A000F0E08A81808309C0E5E3F0E08A818083E3
:1020B00004C0E2E3F0E08A8180830F900F900F90DC
:1020C0000F90CF91DF910895DF93CF93CDB7DEB717
:1020D0002F970FB6F894DEBF0FBECDBF89877B87E1
:1020E0006A8789859AE0692F0E948B25882F90E066
:1020F000A0E0B0E08D839E83AF83B88789859AE0A6
:10210000692F0E948B25892F882F90E0A0E0B0E0F6
:1021100089839A83AB83BC838D819E81AF81B8858F
:102120008C879D87AE87BF878C859D85AE85BF8553
:1021300082309105A105B105C9F18C859D85AE85DB
:10214000BF8583309105A105B10550F48C859D852F
:10215000AE85BF8581309105A105B105A1F05EC0B6
:102160008C859D85AE85BF8583309105A105B10520
:1021700081F18C859D85AE85BF8584309105A10553
:10218000B105D1F14BC0E9E3F0E08081282F30E0C8
:1021900089819A81D90102C0B595A7958A95E2F700
:1021A000CD018170EA85FB85808338C0E6E3F0E0ED
:1021B0008081282F30E089819A81A90102C055953C
:1021C00047958A95E2F7CA018170EA85FB8580838D
:1021D00025C0E3E3F0E08081282F30E089819A81F7
:1021E000D90102C0B595A7958A95E2F7CD01817016
:1021F000EA85FB85808312C0E0E3F0E08081282F30
:1022000030E089819A81A90102C0559547958A9548
:10221000E2F7CA018170EA85FB8580832F960FB6AD
:10222000F894DEBF0FBECDBFCF91DF910895DF934D
:10223000CF93CDB7DEB72D970FB6F894DEBF0FBEA4
:10224000CDBF898789859AE0692F0E948B25882FC9
:1022500090E0A0E0B0E08D839E83AF83B88789854E
:102260009AE0692F0E948B25892F882F90E0A0E0AB
:10227000B0E089839A83AB83BC838D819E81AF81DB
:10228000B8858A879B87AC87BD878A859B85AC8507
:10229000BD8582309105A105B105C9F18A859B856F
:1022A000AC85BD8583309105A105B10550F48A85C3
:1022B0009B85AC85BD8581309105A105B105A1F057
:1022C0005EC08A859B85AC85BD8583309105A1055F
:1022D000B10581F18A859B85AC85BD8584309105EA
:1022E000A105B105D1F14BC0ABE3B0E0EBE3F0E009
:1022F0008081482F29813A8181E090E0022E02C03E
:10230000880F991F0A94E2F784278C9338C0A8E3BA
:10231000B0E0E8E3F0E08081482F29813A8181E054
:1023200090E0022E02C0880F991F0A94E2F78427DA
:102330008C9325C0A5E3B0E0E5E3F0E08081482F71
:1023400029813A8181E090E0022E02C0880F991F16
:102350000A94E2F784278C9312C0A2E3B0E0E2E390
:10236000F0E08081482F29813A8181E090E0022EBF
:1023700002C0880F991F0A94E2F784278C932D9648
:102380000FB6F894DEBF0FBECDBFCF91DF91089599
:10239000DF93CF9300D000D00F92CDB7DEB7898303
:1023A0007B836A838981282F30E03D832C838C8155
:1023B0009D8182309105E9F02C813D8123303105EA
:1023C00034F48C819D818130910561F026C02C818F
:1023D0003D8123303105A1F08C819D8184309105B0
:1023E000B1F01BC0E9E3F0E08081EA81FB818083EA
:1023F00014C0E6E3F0E08081EA81FB8180830DC0B8
:10240000E3E3F0E08081EA81FB81808306C0E0E3C2
:10241000F0E08081EA81FB8180830F900F900F9024
:102420000F900F90CF91DF910895DF93CF930F928C
:10243000CDB7DEB7A7E2B0E0E7E2F0E080818064EC
:102440008C93A7E2B0E0E7E2F0E080818F778C9395
:10245000A7E2B0E0E7E2F0E080818F7D8C93A6E216
:10246000B0E0E6E2F0E0808181608C93A6E2B0E02B
:10247000E6E2F0E0808182608C93A6E2B0E0E6E2E2
:10248000F0E0808184608C93A6E2B0E0E6E2F0E0C8
:10249000808180628C93A6E2B0E0E6E2F0E0808189
:1024A00080688C93A6E2B0E0E6E2F0E08081806490
:1024B0008C93A6E2B0E0E6E2F0E0808188608C9345
:1024C000A7E2B0E0E7E2F0E08081807E8C93A7E2B3
:1024D000B0E0E7E2F0E080818C930F90CF91DF9144
:1024E0000895DF93CF9300D000D00F92CDB7DEB721
:1024F0008D8319821A821B821C82A7E2B0E0E7E278
:10250000F0E08081807E8C93A7E2B0E0E7E2F0E02B
:1025100090818D81892B8C9316C089819A81AB81A2
:10252000BC810196A11DB11D89839A83AB83BC83B5
:10253000E6E2F0E0808182958F70882F90E08170D4
:102540009070882361F489819A81AB81BC81803845
:1025500024E892072EE1A20720E0B207F0F2E4E2BD
:10256000F0E0808191810F900F900F900F900F906D
:10257000CF91DF9108951F920F920FB60F92112401
:102580008F939F93AF93BF93EF93FF93DF93CF937B
:10259000CDB7DEB7A6E2B0E0E6E2F0E0808180648D
:1025A0008C93E4E2F0E0808191819093C801809364
:1025B000C701CF91DF91FF91EF91BF91AF919F91B3
:1025C0008F910F900FBE0F901F901895DF93CF93B0
:1025D0000F92CDB7DEB70E9415120F90CF91DF9109
:1025E0000895DF93CF9300D00F92CDB7DEB79A83D3
:1025F00089832091C9013091CA018091C7019091CE
:10260000C8012817390739F18091C7019091C80195
:102610009093CA018093C9018091C7019091C8012C
:10262000CC01A0E0B0E024EF31E040E050E0BC019C
:10263000CD010E946C25DC01CB012FEF33E040E09F
:1026400050E0BC01CD010E94AA25DA01C901E9814F
:10265000FA81918380830F900F900F90CF91DF913B
:102660000895DF93CF930F92CDB7DEB782E261E09A
:102670000E94980D81E261E00E94980D0F90CF9129
:10268000DF910895DF93CF930F92CDB7DEB782E24B
:1026900061E00E94DD0E81E261E00E94DD0E0F909C
:1026A000CF91DF910895DF93CF930F92CDB7DEB72F
:1026B00082E260E00E94DD0E81E260E00E94DD0EB9
:1026C0000F90CF91DF910895DF93CF93CDB7DEB711
:1026D0002F970FB6F894DEBF0FBECDBF82E20E94E7
:1026E000171180E090E0A8ECB2E48B879C87AD875F
:1026F000BE876B857C858D859E8520E030E04AE72E
:1027000055E40E941F02DC01CB018F839887A987C3
:10271000BA876F81788589859A8520E030E040E826
:102720005FE30E94250488232CF481E090E09E83DF
:102730008D833FC06F81788589859A8520E03FEF42
:102740004FE757E40E94C50318164CF56B857C854E
:102750008D859E8520E030E040E251E40E941F021A
:10276000DC01CB01BC01CD010E944900DC01CB01A1
:102770009E838D830FC080E991E09C838B838B8146
:102780009C810197F1F79C838B838D819E810197BA
:102790009E838D838D819E81009769F714C06F8120
:1027A000788589859A850E944900DC01CB019E834A
:1027B0008D838D819E819A83898389819A810197F6
:1027C000F1F79A8389832F960FB6F894DEBF0FBE78
:1027D000CDBFCF91DF910895DF93CF9300D000D08C
:1027E000CDB7DEB78A8382E089838A81282F30E0E3
:1027F0003C832B838B819C818230910579F02B81E6
:102800003C812330310579F08B819C8181309105A9
:1028100079F48EE161E00E94980D0BC080E261E0E6
:102820000E94980D06C08FE161E00E94980D01C0E2
:10283000198289810F900F900F900F90CF91DF91A7
:102840000895DF93CF9300D000D0CDB7DEB78A8351
:1028500082E089838A81282F30E03C832B838B811F
:102860009C818230910579F02B813C8123303105A8
:1028700079F08B819C818130910579F48EE161E062
:102880000E94DD0E0BC080E261E00E94DD0E06C0FA
:102890008FE161E00E94DD0E01C0198289810F90F5
:1028A0000F900F900F90CF91DF910895DF93CF930A
:1028B00000D000D0CDB7DEB78A8382E089838A81D9
:1028C000282F30E03C832B838B819C8182309105C3
:1028D00079F02B813C812330310579F08B819C810B
:1028E0008130910579F48EE160E00E94DD0E0BC02D
:1028F00080E260E00E94DD0E06C08FE160E00E9491
:10290000DD0E01C0198289810F900F900F900F90FA
:10291000CF91DF910895DF93CF9300D000D0CDB752
:10292000DEB78A8382E089838A81282F30E03C8366
:102930002B838B819C818230910571F02B813C81AE
:102940002330310569F08B819C818130910561F4E0
:102950008EE10E94171109C080E20E94171105C084
:102960008FE10E94171101C0198289810F900F9089
:102970000F900F90CF91DF910895DF93CF93CDB754
:10298000DEB7AB970FB6F894DEBF0FBECDBF8BE0BE
:1029900061E00E94980D8CE061E00E94980D80E15A
:1029A00061E00E94980D8FE061E00E94980D8EE03A
:1029B00061E00E94980D8DE061E00E94980D80E03A
:1029C00090E0ACE0B2E48FA398A7A9A7BAA76FA143
:1029D00078A589A59AA520E030E04AE755E40E9451
:1029E0001F02DC01CB018BA39CA3ADA3BEA36BA1F3
:1029F0007CA18DA19EA120E030E040E85FE30E9431
:102A0000250488232CF481E090E09AA389A33FC099
:102A10006BA17CA18DA19EA120E03FEF4FE757E481
:102A20000E94C50318164CF56FA178A589A59AA533
:102A300020E030E040E251E40E941F02DC01CB01C3
:102A4000BC01CD010E944900DC01CB019AA389A3FE
:102A50000FC080E991E098A38F8F8F8D98A1019787
:102A6000F1F798A38F8F89A19AA101979AA389A3BF
:102A700089A19AA1009769F714C06BA17CA18DA1CF
:102A80009EA10E944900DC01CB019AA389A389A1E0
:102A90009AA19E8F8D8F8D8D9E8D0197F1F79E8FC0
:102AA0008D8F8CE060E00E94DD0E80E160E00E948E
:102AB000DD0E8FE060E00E94DD0E8EE061E00E949E
:102AC000DD0E8DE060E00E94DD0E8CE061E00E9492
:102AD000DD0E80E090E0A0E8BFE3898F9A8FAB8F96
:102AE000BC8F698D7A8D8B8D9C8D20E030E04AE71C
:102AF00055E40E941F02DC01CB018D8B9E8BAF8BB6
:102B0000B88F6D897E898F89988D20E030E040E80C
:102B10005FE30E94250488232CF481E090E09C8BE5
:102B20008B8B3FC06D897E898F89988D20E03FEF28
:102B30004FE757E40E94C50318164CF5698D7A8D4E
:102B40008B8D9C8D20E030E040E251E40E941F021A
:102B5000DC01CB01BC01CD010E944900DC01CB01AD
:102B60009C8B8B8B0FC080E991E09A8B898B898934
:102B70009A890197F1F79A8B898B8B899C890197A8
:102B80009C8B8B8B8B899C89009769F714C06D890E
:102B90007E898F89988D0E944900DC01CB019C8B36
:102BA0008B8B8B899C89988B8F878F8598890197D0
:102BB000F1F7988B8F878CE060E00E94DD0E80E05B
:102BC00090E0A0EFB1E48B879C87AD87BE876B85D3
:102BD0007C858D859E8520E030E04AE755E40E94A3
:102BE0001F02DC01CB018F839887A987BA876F8189
:102BF000788589859A8520E030E040E85FE30E948F
:102C0000250488232CF481E090E09E838D833FC0CF
:102C10006F81788589859A8520E03FEF4FE757E4FB
:102C20000E94C50318164CF56B857C858D859E85A5
:102C300020E030E040E251E40E941F02DC01CB01C1
:102C4000BC01CD010E944900DC01CB019E838D8334
:102C50000FC080E991E09C838B838B819C810197DD
:102C6000F1F79C838B838D819E8101979E838D8359
:102C70008D819E81009769F714C06F817885898561
:102C80009A850E944900DC01CB019E838D838D8152
:102C90009E819A83898389819A810197F1F79A832A
:102CA000898388E20E9478168EE00E94781681E07F
:102CB0000E94781686E00E947816AB960FB6F894BC
:102CC000DEBF0FBECDBFCF91DF910895DF93CF93CD
:102CD0000F92CDB7DEB789838BE061E00E94DD0EF5
:102CE00089810E94A21782E00F90CF91DF91089511
:102CF000DF93CF930F92CDB7DEB789838BE060E08F
:102D00000E94DD0E89810E94A21782E00F90CF9170
:102D1000DF910895DF93CF9300D0CDB7DEB79A83CC
:102D200089830AC0E981FA8180810E9466168981BF
:102D30009A8101969A838983E981FA818081882327
:102D400089F782E00F900F90CF91DF910895DF9384
:102D5000CF930F92CDB7DEB781E00E9478160F9027
:102D6000CF91DF9108950F931F93DF93CF93CDB74A
:102D7000DEB72F970FB6F894DEBF0FBECDBF6C87BE
:102D80007D878E879F878AE0FE013296DF01982F2C
:102D90001D929A95E9F719828C859D85AE85BF8530
:102DA0000097A105B10521F480E30E94661649C091
:102DB0008C859D85AE85BF85BB230CF042C08DE21E
:102DC0000E9466168C859D85AE85BF85B095A095C1
:102DD000909581959F4FAF4FBF4F8C879D87AE8752
:102DE000BF872FC08981082F112707FD10958C857B
:102DF0009D85AE85BF852AE030E040E050E0BC0113
:102E0000CD010E94CC25DC01CB01282FCE010296FA
:102E1000FC01E00FF11F20838C859D85AE85BF8569
:102E20002AE030E040E050E0BC01CD010E94CC251A
:102E3000DA01C9018C879D87AE87BF8789818F5F43
:102E400089838C859D85AE85BF85181619061A065F
:102E50001B0644F289818150898311C08981282F02
:102E6000332727FD3095CE010296FC01E20FF31FB8
:102E70008081805D0E946616898181508983898165
:102E8000882364F782E02F960FB6F894DEBF0FBE5A
:102E9000CDBFCF91DF911F910F910895DF93CF9315
:102EA00000D00F92CDB7DEB789836A8389818823EA
:102EB00029F48A8180680E94781607C08981813050
:102EC00021F48A81806C0E9478160F900F900F90E9
:102ED000CF91DF910895DF93CF9300D000D00F9270
:102EE000CDB7DEB78A837C836B838A81805C0E9446
:102EF000781619820EC08981282F30E08B819C8141
:102F0000FC01E20FF31F80810E94661689818F5FAA
:102F100089838981893078F30F900F900F900F90FB
:102F20000F90CF91DF910895DF93CF9300D0CDB76D
:102F3000DEB7898389810E9466160F900F90CF912A
:102F4000DF910895DF93CF93CDB7DEB7EE970FB63D
:102F5000F894DEBF0FBECDBF8EAF8DE08AAF8EE09E
:102F60008BAF8FE08CAF80E18DAF8CE060E00E9492
:102F7000DD0E19AE20C089AD282F30E0CE01CA96F3
:102F8000FC01E20FF31F40818EAD282F30E089ADA8
:102F9000882F90E00496B90102C0759567958A95CF
:102FA000E2F7CB01982F9170842F692F0E94DD0EDC
:102FB00089AD8F5F89AF89AD8430E8F28CE061E044
:102FC0000E94DD0E80E090E0A0E8BFE38DAB9EABF9
:102FD000AFABB8AF6DA97EA98FA998AD20E030E066
:102FE0004AE755E40E941F02DC01CB0189AB9AAB92
:102FF000ABABBCAB69A97AA98BA99CA920E030E056
:1030000040E85FE30E94250488232CF481E090E0EF
:1030100098AB8FA73FC069A97AA98BA99CA920E08A
:103020003FEF4FE757E40E94C50318164CF56DA912
:103030007EA98FA998AD20E030E040E251E40E94E3
:103040001F02DC01CB01BC01CD010E944900DC0163
:10305000CB0198AB8FA70FC080E991E09EA78DA709
:103060008DA59EA50197F1F79EA78DA78FA598A97D
:10307000019798AB8FA78FA598A9009769F714C0FF
:1030800069A97AA98BA99CA90E944900DC01CB01FE
:1030900098AB8FA78FA598A99CA78BA78BA59CA55C
:1030A0000197F1F79CA78BA78CE060E00E94DD0EF2
:1030B00080E090E0A0EFB1E48FA398A7A9A7BAA7FA
:1030C0006FA178A589A59AA520E030E04AE755E4EC
:1030D0000E941F02DC01CB018BA39CA3ADA3BEA366
:1030E0006BA17CA18DA19EA120E030E040E85FE3D0
:1030F0000E94250488232CF481E090E09AA389A300
:103100003FC06BA17CA18DA19EA120E03FEF4FE7C6
:1031100057E40E94C50318164CF56FA178A589A540
:103120009AA520E030E040E251E40E941F02DC0159
:10313000CB01BC01CD010E944900DC01CB019AA367
:1031400089A30FC080E991E098A38F8F8F8D98A1FC
:103150000197F1F798A38F8F89A19AA101979AA35C
:1031600089A389A19AA1009769F714C06BA17CA1DA
:103170008DA19EA10E944900DC01CB019AA389A3E5
:1031800089A19AA19E8F8D8F8D8D9E8D0197F1F7CC
:103190009E8F8D8F19AE1FC089AD282F30E0CE01D4
:1031A000CA96FC01E20FF31F40818EAD282F30E05C
:1031B00089AD882F90E0B90102C0759567958A9511
:1031C000E2F7CB01982F9170842F692F0E94DD0EBA
:1031D00089AD8F5F89AF89AD8430F0F28CE061E01A
:1031E0000E94DD0E80E090E0A0E8BFE3898F9A8F17
:1031F000AB8FBC8F698D7A8D8B8D9C8D20E030E0FC
:103200004AE755E40E941F02DC01CB018D8B9E8BA7
:10321000AF8BB88F6D897E898F89988D20E030E0E3
:1032200040E85FE30E94250488232CF481E090E0CD
:103230009C8B8B8B3FC06D897E898F89988D20E018
:103240003FEF4FE757E40E94C50318164CF5698D10
:103250007A8D8B8D9C8D20E030E040E251E40E941D
:103260001F02DC01CB01BC01CD010E944900DC0141
:10327000CB019C8B8B8B0FC080E991E09A8B898B63
:1032800089899A890197F1F79A8B898B8B899C8917
:1032900001979C8B8B8B8B899C89009769F714C055
:1032A0006D897E898F89988D0E944900DC01CB0150
:1032B0009C8B8B8B8B899C89988B8F878F8598892A
:1032C0000197F1F7988B8F878CE060E00E94DD0E0C
:1032D00080E090E0A0EFB1E48B879C87AD87BE874C
:1032E0006B857C858D859E8520E030E04AE755E43E
:1032F0000E941F02DC01CB018F839887A987BA87C0
:103300006F81788589859A8520E030E040E85FE329
:103310000E94250488232CF481E090E09E838D8315
:103320003FC06F81788589859A8520E03FEF4FE720
:1033300057E40E94C50318164CF56B857C858D8576
:103340009E8520E030E040E251E40E941F02DC0153
:10335000CB01BC01CD010E944900DC01CB019E8361
:103360008D830FC080E991E09C838B838B819C814E
:103370000197F1F79C838B838D819E8101979E83BA
:103380008D838D819E81009769F714C06F81788548
:1033900089859A850E944900DC01CB019E838D833B
:1033A0008D819E819A83898389819A810197F1F722
:1033B0009A838983EE960FB6F894DEBF0FBECDBF19
:1033C000CF91DF910895DF93CF93CDB7DEB788E13A
:1033D00061E00E94980D89E161E00E94980D8AE108
:1033E00061E00E94980D8BE161E00E94980D8AE2F5
:1033F00060E00E94980D8BE260E00E94980D8CE2E4
:1034000060E00E94980D8DE260E00E94980D88E1D6
:1034100061E00E94DD0E89E161E00E94DD0E8AE13B
:1034200061E00E94DD0E8BE161E00E94DD0E82E032
:10343000CF91DF910895DF93CF93CDB7DEB7E297B9
:103440000FB6F894DEBF0FBECDBF9DA78CA78FEF40
:103450008A8B1F86CE0144969FA78EA7E8E9F1E0EC
:10346000F9ABE8ABF0E1FAABE8A9F9A9008088A9CB
:1034700099A9019699AB88ABEEA5FFA500828EA510
:103480009FA501969FA78EA79AA991509AABEAA9EA
:10349000EE2351F788E18CA389E18DA38AE18EA305
:1034A0008BE18FA38AE288A78BE289A78CE28AA7A7
:1034B0008DE28BA7198AE6C08989282F30E0CE01DA
:1034C0008496FC01E20FF31F808160E00E94DD0E14
:1034D000188AC2C08889282F30E0CE018896FC0166
:1034E000E20FF31F80819E012D5E3F4FB9010E94C4
:1034F00064108B89882309F0ACC080E090E0A8E4D8
:10350000B2E48B879C87AD87BE876B857C858D8574
:103510009E8520E030E04AE755E40E941F02DC016E
:10352000CB018F839887A987BA876F817885898532
:103530009A8520E030E040E85FE30E94250488237C
:103540002CF481E090E09E838D833FC06F8178856D
:1035500089859A8520E03FEF4FE757E40E94C50335
:1035600018164CF56B857C858D859E8520E030E0B6
:1035700040E251E40E941F02DC01CB01BC01CD01FD
:103580000E944900DC01CB019E838D830FC080E93E
:1035900091E09C838B838B819C810197F1F79C83C5
:1035A0008B838D819E8101979E838D838D819E81EA
:1035B000009769F714C06F81788589859A850E9484
:1035C0004900DC01CB019E838D838D819E819A838E
:1035D000898389819A810197F1F79A838983888900
:1035E000282F30E0CE018896FC01E20FF31F808186
:1035F0009E012D5E3F4FB9010E9464108B89882384
:1036000041F58B89882379F48889282F30E0CE0111
:103610008896FC01E20FF31F80819E012D5E3F4FD3
:10362000B9010E9464108989282F30E08889482FC9
:1036300050E0220F331F220F331FCE010196820F5D
:10364000931F840F951FFC01739680818A8B81E004
:103650008F8788898F5F888B8889843020F48F8555
:10366000882309F437CF8989282F30E0CE0184964A
:10367000FC01E20FF31F808161E00E94DD0E898969
:103680008F5F898B8989843020F48F85882309F4A2
:1036900013CFECA5FDA58A89808382E0E2960FB660
:1036A000F894DEBF0FBECDBFCF91DF910895DF93B9
:1036B000CF93CDB7DEB70E945D0B82E0CF91DF9153
:1036C0000895DF93CF9300D000D000D0CDB7DEB700
:1036D0009C838B836D830E947F0BCE0102960E9498
:1036E000EC0B8A81883019F083E08E832DC019821B
:1036F0008981806A0E949C0BCE0102960E94EC0B8D
:103700008A81883119F083E08E831EC08B810E94EC
:103710009C0BCE0102960E94EC0B8A81883219F034
:1037200083E08E8311C08D810E949C0BCE01029696
:103730000E94EC0B8A81883219F083E08E8304C0EA
:103740000E94900B82E08E838E8126960FB6F894AD
:10375000DEBF0FBECDBFCF91DF910895DF93CF9332
:10376000CDB7DEB727970FB6F894DEBF0FBECDBF3B
:103770009C838B837E836D830E947F0BCE01029698
:103780000E94EC0B8A81883019F083E08F8347C058
:1037900019828981806A0E949C0BCE0102960E9448
:1037A000EC0B8A81883119F083E08F8338C08B81DC
:1037B0000E949C0BCE0102960E94EC0B8A818832FB
:1037C00019F083E08F832BC00E947F0BCE010296FD
:1037D0000E94EC0B8A81803119F083E08F831FC037
:1037E00081EA0E949C0BCE0102960E94EC0B8A811A
:1037F000803419F083E08F8312C08D819E810E94F6
:10380000B40BCE0102960E94EC0B8A81803519F030
:1038100083E08F8304C00E94900B82E08F838F81AE
:1038200027960FB6F894DEBF0FBECDBFCF91DF91C4
:103830000895DF93CF930F92CDB7DEB781E261E0B9
:103840000E94980D82E261E00E94980D0F90CF9146
:10385000DF910895DF93CF930F92CDB7DEB781E26A
:1038600060E00E94DD0E82E260E00E94DD0E0F90BB
:10387000CF91DF910895DF93CF930F92CDB7DEB74D
:1038800081E260E00E94DD0E82E261E00E94DD0ED6
:103890000F90CF91DF910895DF93CF930F92CDB723
:1038A000DEB781E261E00E94DD0E82E260E00E940C
:1038B000DD0E0F90CF91DF910895AF92BF92CF921E
:1038C000DF92EF92FF920F931F93DF93CF93CDB7C9
:1038D000DEB7C85BD0400FB6F894DEBF0FBECDBFD9
:1038E0000E94BD140E94E3190E94571B83E00E94AE
:1038F000EC130E9431130E94E6120E94191C8EE202
:1039000060E00E94980D83E261E00E94980D0E94A1
:10391000F40880E00E94640A0E9419090E9463076B
:103920000E94F3070E94FF0788E295E20E941F08A9
:1039300080E695E20E94AF070E9488070E94000C73
:1039400083E261E00E94DD0EFE01ED56FF4F80E054
:1039500090E0A0E2B1E480839183A283B3838E01DF
:1039600001571F4FFE01ED56FF4F6081718182812B
:1039700093812BEA3AEA4AEA50E40E941F02DC01F2
:10398000CB01F80180839183A283B383FE01E157C9
:10399000FF4F608171818281938120E030E040E8B7
:1039A0005FE30E942504882334F4FE01E257FF4FB1
:1039B00081E08083E0C0FE01E157FF4F60817181AB
:1039C0008281938120E030E04FE753E40E94C503F9
:1039D00018160CF0C0C0FE01ED56FF4F60817181DA
:1039E0008281938120E030E04AE754E40E94190389
:1039F000DC01CB01FE01E657FF4F80839183A28358
:103A0000B3838E010A571F4FFE01E657FF4F6081B7
:103A100071818281938120E030E04AE755E40E9481
:103A20001F02DC01CB01F80180839183A283B38361
:103A3000FE01EA57FF4F608171818281938120E00E
:103A400030E040E85FE30E942504882344F4FE014F
:103A5000EC57FF4F81E090E09183808364C0FE01CA
:103A6000EA57FF4F608171818281938120E03FEFAF
:103A70004FE757E40E94C50318160CF043C0FE013F
:103A8000E657FF4F608171818281938120E030E0B1
:103A900040E251E40E941F02DC01CB018E010C5771
:103AA0001F4FBC01CD010E944900DC01CB01F80190
:103AB000918380831FC0FE01EE57FF4F80E991E0A4
:103AC00091838083FE01EE57FF4F808191810197A2
:103AD000F1F7FE01EE57FF4F91838083DE01AC5773
:103AE000BF4FFE01EC57FF4F8081918101971196E6
:103AF0009C938E93FE01EC57FF4F8081918100973C
:103B0000D1F64BC08E010C571F4FFE01EA57FF4FF5
:103B100060817181828193810E944900DC01CB0127
:103B2000F80191838083DE01A058BF4FFE01EC575E
:103B3000FF4F8081918111969C938E93FE01E058F6
:103B4000FF4F808191810197F1F7FE01E058FF4F0F
:103B50009183808322C08E0102571F4FFE01E157DF
:103B6000FF4F60817181828193810E944900DC0155
:103B7000CB01F8018083DE01A158BF4FFE01E2575F
:103B8000FF4F80818C93FE01E158FF4F80818A9521
:103B9000F1F7FE01E158FF4F808383E260E00E946D
:103BA000DD0E809183018330E1F78091CD0190910A
:103BB000CE017C0100E010E08091D1019091D20112
:103BC000CC01A0E0B0E029E43FEF40E050E0BC01D0
:103BD000CD010E946C25DC01CB0157016801A80EC4
:103BE000B91ECA1EDB1E8091CB019091CC017C01D5
:103BF00000E010E08091CF019091D001CC01A0E0D5
:103C0000B0E029E43FEF40E050E0BC01CD010E946C
:103C10006C25DC01CB018E0D9F1DA01FB11FFE0185
:103C2000EA55FF4FA6019501281B390B4A0B5B0B88
:103C3000DA01C90180839183A283B3832091CD01EE
:103C40003091CE018091CB019091CC01A901481B0C
:103C5000590BCA01FE01EA55FF4FCC01A0E0B0E0CC
:103C600080839183A283B383FE01EE55FF4F80E0F2
:103C700090E0A0E8B2E480839183A283B383FE0145
:103C8000EA55FF4F60817181828193810E94A9046E
:103C9000DC01CB01FE01EE55FF4FBC01CD012081BF
:103CA0003181428153810E941F02DC01CB018E01D0
:103CB00002561F4FBC01CD0120E034E244E759E435
:103CC0000E941903DC01CB01F80180839183A28358
:103CD000B383FE01E256FF4F60817181828193813F
:103CE00020E030E040E050E40E941903DC01CB0109
:103CF000BC01CD0120E03CEF45E057E40E941F02EB
:103D0000DC01CB01BC01CD010E943226DC01CB01DC
:103D10008E0106561F4FBC01CD010E944900DC01F7
:103D2000CB01F80180839183A283B38380918301C7
:103D30008330E1F7FE01E255FF4F81E08083FE0111
:103D4000E255FF4F82E08183FE01E255FF4F83E0A1
:103D50008283FE01E255FF4F84E08383FE01E75634
:103D6000FF4F1082D3C0FE01E756FF4F8081482FDE
:103D700050E0FE01E756FF4F8081282F30E0CE0152
:103D800082559F4FFC01E20FF31F2081CA01622F71
:103D90000E94611BFE01E558FF4F80E090E0A8EC17
:103DA000B2E480839183A283B3838E0109581F4FAD
:103DB000FE01E558FF4F608171818281938120E08F
:103DC00030E04AE755E40E941F02DC01CB01F80114
:103DD00080839183A283B383FE01E958FF4F608102
:103DE00071818281938120E030E040E85FE30E94AE
:103DF0002504882344F4FE01EB58FF4F81E090E056
:103E00009183808364C0FE01E958FF4F6081718116
:103E10008281938120E03FEF4FE757E40E94C50382
:103E200018160CF043C0FE01E558FF4F6081718108
:103E30008281938120E030E040E251E40E941F0241
:103E4000DC01CB018E010B581F4FBC01CD010E943C
:103E50004900DC01CB01F801918380831FC0FE0182
:103E6000ED58FF4F80E991E091838083FE01ED588A
:103E7000FF4F808191810197F1F7FE01ED58FF4FCF
:103E800091838083DE01AB58BF4FFE01EB58FF4F9B
:103E900080819181019711969C938E93FE01EB583E
:103EA000FF4F808191810097D1F627C08E010B587A
:103EB0001F4FFE01E958FF4F60817181828193811C
:103EC0000E944900DC01CB01F80191838083DE016F
:103ED000AF58BF4FFE01EB58FF4F808191818D930A
:103EE0009C93FE01EF58FF4F808191810197F1F77C
:103EF000FE01EF58FF4F91838083DE01A756BF4F2D
:103F0000FE01E756FF4F80818F5F8C93FE01E756DD
:103F1000FF4F8081853008F426CF9E0126553F4F04
:103F200080E090E0B9010E94AE1BFE01E359FF4F13
:103F300080E090E0A8ECB2E480839183A283B38315
:103F40008E0107591F4FFE01E359FF4F60817181B8
:103F50008281938120E030E04AE755E40E941F020D
:103F6000DC01CB01F80180839183A283B383FE013E
:103F7000E759FF4F608171818281938120E030E0B9
:103F800040E85FE30E942504882344F4FE01E959D8
:103F9000FF4F81E090E09183808364C0FE01E75988
:103FA000FF4F608171818281938120E03FEF4FE775
:103FB00057E40E94C50318160CF043C0FE01E359F4
:103FC000FF4F608171818281938120E030E040E287
:103FD00051E40E941F02DC01CB018E0109591F4FE1
:103FE000BC01CD010E944900DC01CB01F8019183A5
:103FF00080831FC0FE01EB59FF4F80E991E0918360
:104000008083FE01EB59FF4F808191810197F1F789
:10401000FE01EB59FF4F91838083DE01A959BF4F09
:10402000FE01E959FF4F80819181019711969C9380
:104030008E93FE01E959FF4F808191810097D1F65F
:1040400027C08E0109591F4FFE01E759FF4F6081BC
:104050007181828193810E944900DC01CB01F801CA
:1040600091838083DE01AD59BF4FFE01E959FF4FB7
:10407000808191818D939C93FE01ED59FF4F80814A
:1040800091810197F1F7FE01ED59FF4F91838083F4
:10409000CE0186559F4F9C012F5F3F4F81E090E0FE
:1040A000B9010E94AE1BFE01E15AFF4F80E090E093
:1040B000A8ECB2E480839183A283B3838E01055A76
:1040C0001F4FFE01E15AFF4F608171818281938110
:1040D00020E030E04AE755E40E941F02DC01CB01FA
:1040E000F80180839183A283B383FE01E55AFF4FD9
:1040F000608171818281938120E030E040E85FE35C
:104100000E942504882344F4FE01E75AFF4F81E012
:1041100090E09183808364C0FE01E55AFF4F608187
:1041200071818281938120E03FEF4FE757E40E9445
:10413000C50318160CF043C0FE01E15AFF4F608121
:1041400071818281938120E030E040E251E40E945D
:104150001F02DC01CB018E01075A1F4FBC01CD01AC
:104160000E944900DC01CB01F801918380831FC0CC
:10417000FE01E95AFF4F80E991E091838083FE01BF
:10418000E95AFF4F808191810197F1F7FE01E95AC9
:10419000FF4F91838083DE01A75ABF4FFE01E75A8C
:1041A000FF4F80819181019711969C938E93FE0120
:1041B000E75AFF4F808191810097D1F627C08E0189
:1041C000075A1F4FFE01E55AFF4F608171818281BE
:1041D00093810E944900DC01CB01F8019183808327
:1041E000DE01AB5ABF4FFE01E75AFF4F808191813C
:1041F0008D939C93FE01EB5AFF4F80819181019733
:10420000F1F7FE01EB5AFF4F91838083CE01865573
:104210009F4F9C012E5F3F4F82E090E0B9010E94CA
:10422000AE1BFE01EF5AFF4F80E090E0A8ECB2E435
:1042300080839183A283B3838E01035B1F4FFE01B2
:10424000EF5AFF4F608171818281938120E030E0DD
:104250004AE755E40E941F02DC01CB01F80180838C
:104260009183A283B383FE01E35BFF4F6081718181
:104270008281938120E030E040E85FE30E942504E2
:10428000882344F4FE01E55BFF4F81E090E09183D9
:10429000808364C0FE01E35BFF4F60817181828196
:1042A000938120E03FEF4FE757E40E94C5031816C3
:1042B0000CF043C0FE01EF5AFF4F60817181828193
:1042C000938120E030E040E251E40E941F02DC01D3
:1042D000CB018E01055B1F4FBC01CD010E9449003F
:1042E000DC01CB01F801918380831FC0FE01E75BF5
:1042F000FF4F80E991E091838083FE01E75BFF4FF0
:10430000808191810197F1F7FE01E75BFF4F918377
:104310008083DE01A55BBF4FFE01E55BFF4F80811F
:104320009181019711969C938E93FE01E55BFF4F5F
:10433000808191810097D1F627C08E01055B1F4FC8
:10434000FE01E35BFF4F60817181828193810E9456
:104350004900DC01CB01F80191838083DE01A95B78
:10436000BF4FFE01E55BFF4F808191818D939C9350
:10437000FE01E95BFF4F808191810197F1F7FE011A
:10438000E95BFF4F91838083CE0186559F4F9C014F
:104390002D5F3F4F83E090E0B9010E94AE1BFE010C
:1043A000ED5BFF4F80E090E0A8ECB2E48083918366
:1043B000A283B3838E01015C1F4FFE01ED5BFF4FB3
:1043C000608171818281938120E030E04AE755E489
:1043D0000E941F02DC01CB01F80180839183A2833C
:1043E000B383FE01FF96608171818281938120E019
:1043F00030E040E85FE30E94250488232CF481E04C
:1044000090E09EAF8DAF46C0FE01FF966081718146
:104410008281938120E03FEF4FE757E40E94C5037C
:10442000181664F5FE01ED5BFF4F6081718182819A
:10443000938120E030E040E251E40E941F02DC0161
:10444000CB01BC01CD010E944900DC01CB019EAF34
:104450008DAF0FC080E991E09CAF8BAF8BAD9CAD71
:104460000197F1F79CAF8BAF8DAD9EAD01979EAFDD
:104470008DAF8DAD9EAD009769F716C0FE01FF961A
:1044800060817181828193810E944900DC01CB01AE
:104490009EAF8DAF8DAD9EAD9AAF89AF89AD9AAD10
:1044A0000197F1F79AAF89AFCE018E549F4F0E94CA
:1044B000F112FE01EE54FF4F808191818A31910506
:1044C00018F40E942A1C01C1FE01EE54FF4F8081A6
:1044D00091818A31910508F478C00E943B1C82E3E7
:1044E0000E94640A80E090E0AAE7B4E48DAB9EAB42
:1044F000AFABB8AF6DA97EA98FA998AD20E030E031
:104500004AE755E40E941F02DC01CB0189AB9AAB5C
:10451000ABABBCAB69A97AA98BA99CA920E030E020
:1045200040E85FE30E94250488232CF481E090E0BA
:1045300098AB8FA73FC069A97AA98BA99CA920E055
:104540003FEF4FE757E40E94C50318164CF56DA9DD
:104550007EA98FA998AD20E030E040E251E40E94AE
:104560001F02DC01CB01BC01CD010E944900DC012E
:10457000CB0198AB8FA70FC080E991E09EA78DA7D4
:104580008DA59EA50197F1F79EA78DA78FA598A948
:10459000019798AB8FA78FA598A9009769F795C049
:1045A00069A97AA98BA99CA90E944900DC01CB01C9
:1045B00098AB8FA78FA598A99CA78BA78BA59CA527
:1045C0000197F1F79CA78BA780C0FE01EE54FF4F27
:1045D000808191818E31910508F477C00E943B1C47
:1045E00084E60E94640A80E090E0AAE7B4E48FA326
:1045F00098A7A9A7BAA76FA178A589A59AA520E031
:1046000030E04AE755E40E941F02DC01CB018BA396
:104610009CA3ADA3BEA36BA17CA18DA19EA120E014
:1046200030E040E85FE30E94250488232CF481E019
:1046300090E09AA389A33FC06BA17CA18DA19EA10C
:1046400020E03FEF4FE757E40E94C50318164CF5F2
:104650006FA178A589A59AA520E030E040E251E459
:104660000E941F02DC01CB01BC01CD010E94490068
:10467000DC01CB019AA389A30FC080E991E098A344
:104680008F8F8F8D98A10197F1F798A38F8F89A1B4
:104690009AA101979AA389A389A19AA1009769F782
:1046A00014C06BA17CA18DA19EA10E944900DC01D8
:1046B000CB019AA389A389A19AA19E8F8D8F8D8DFD
:1046C0009E8D0197F1F79E8F8D8FFE01EC54FF4F69
:1046D0008FEF8083FE01E856FF4F1082FE01E65601
:1046E000FF4F80819181A281B38180319105A10525
:1046F000B10508F0A8C181E060E00E944E1784E691
:1047000092E70E948A16CE018C549F4F0E941B1A7A
:10471000FE01E255FF4F8081882F90E09C01CE0181
:104720008C549F4F2817390709F049C0FE01E25504
:10473000FF4F8181882F90E09C01CE018C549F4FC8
:1047400028173907E1F5FE01E255FF4F8281882FD6
:1047500090E09C01CE018C549F4F2817390779F5C2
:10476000FE01E255FF4F8381882F90E09C01CE012E
:104770008C549F4F2817390711F50E94A71681E026
:1047800060E00E944E1780E690E00E948A160E9428
:104790006413CE018C549F4FFFE48E349F0719F4AD
:1047A00083E00E942114CE018C549F4F26E486346E
:1047B000920709F079CE83E00E94561475CEFE016F
:1047C000E956FF4F1082C5C00E94A71681E060E045
:1047D0000E944E178CE690E00E948A16FE01E25578
:1047E000FF4F8081882F90E09C01CE018C549F4F19
:1047F0002817390709F0A4C0FE01E255FF4F818157
:10480000882F90E09C01CE018C549F4F28173907C8
:1048100009F096C0FE01E255FF4F8281882F90E09B
:104820009C01CE018C549F4F2817390709F088C08E
:10483000FE01E255FF4F8381882F90E09C01CE015D
:104840008C549F4F2817390709F07AC00E94A71689
:1048500080E690E00E948A1680E090E0AAEFB3E440
:10486000898F9A8FAB8FBC8F698D7A8D8B8D9C8D44
:1048700020E030E04AE755E40E941F02DC01CB0152
:104880008D8B9E8BAF8BB88F6D897E898F89988D2C
:1048900020E030E040E85FE30E94250488232CF408
:1048A00081E090E09C8B8B8B3FC06D897E898F89E6
:1048B000988D20E03FEF4FE757E40E94C50318169C
:1048C0004CF5698D7A8D8B8D9C8D20E030E040E237
:1048D00051E40E941F02DC01CB01BC01CD010E940A
:1048E0004900DC01CB019C8B8B8B0FC080E991E0F0
:1048F0009A8B898B89899A890197F1F79A8B898B91
:104900008B899C8901979C8B8B8B8B899C890097C9
:1049100069F714C06D897E898F89988D0E9449003E
:10492000DC01CB019C8B8B8B8B899C89988B8F872F
:104930008F8598890197F1F7988B8F870E94A7162A
:10494000DE01A956BF4FFE01E956FF4F80818F5F00
:104950008C93FE01E956FF4F8081843008F434CFF8
:1049600080E090E0AAEFB4E48B879C87AD87BE8798
:104970006B857C858D859E8520E030E04AE755E497
:104980000E941F02DC01CB018F839887A987BA8719
:104990006F81788589859A8520E030E040E85FE383
:1049A0000E94250488232CF481E090E09E838D836F
:1049B0003FC06F81788589859A8520E03FEF4FE77A
:1049C00057E40E94C50318164CF56B857C858D85D0
:1049D0009E8520E030E040E251E40E941F02DC01AD
:1049E000CB01BC01CD010E944900DC01CB019E83BB
:1049F0008D830FC080E991E09C838B838B819C81A8
:104A00000197F1F79C838B838D819E8101979E8313
:104A10008D838D819E81009769F746CD6F81788562
:104A200089859A850E944900DC01CB019E838D8394
:104A30008D819E819A83898389819A810197F1F77B
:104A40009A83898331CD85E697E60E948A162CCD1C
:104A5000DF93CF93CDB7DEB780918301813099F496
:104A60008BEC91E00E943D088091D301882F90E06B
:104A70009093D0018093CF0180E00E945D0882E096
:104A8000809383011AC0809183018230B1F48DEC50
:104A900091E00E943D088091D301882F90E090938F
:104AA000D2018093D10183E08093830181E00E9451
:104AB0005D080E949F070E940F08CF91DF91089523
:104AC000DF93CF93CDB7DEB78091D3018F5F809313
:104AD000D301CF91DF910895629FD001739FF001C0
:104AE000829FE00DF11D649FE00DF11D929FF00D7E
:104AF000839FF00D749FF00D659FF00D9927729FB5
:104B0000B00DE11DF91F639FB00DE11DF91FBD013F
:104B1000CF0111240895991B79E004C0991F9617BD
:104B200008F0961B881F7A95C9F78095089597FB22
:104B3000092E07260AD077FD04D049D006D00020E0
:104B40001AF4709561957F4F0895F6F790958195C9
:104B50009F4F0895A1E21A2EAA1BBB1BFD010DC099
:104B6000AA1FBB1FEE1FFF1FA217B307E407F5071D
:104B700020F0A21BB30BE40BF50B661F771F881FF9
:104B8000991F1A9469F760957095809590959B018F
:104B9000AC01BD01CF01089597FB092E05260ED06B
:104BA00057FD04D0D7DF0AD0001C38F4509540954B
:104BB000309521953F4F4F4F5F4F0895F6F79095F1
:104BC0008095709561957F4F8F4F9F4F0895AA1BD9
:104BD000BB1B51E107C0AA1FBB1FA617B70710F0E8
:104BE000A61BB70B881F991F5A95A9F7809590951A
:104BF000BC01CD0108952F923F924F925F926F9228
:104C00007F928F929F92AF92BF92CF92DF92EF925C
:104C1000FF920F931F93CF93DF93CDB7DEB7CA1BDD
:104C2000DB0B0FB6F894DEBF0FBECDBF09942A8808
:104C3000398848885F846E847D848C849B84AA84B0
:104C4000B984C884DF80EE80FD800C811B81AA813D
:104C5000B981CE0FD11D0FB6F894DEBF0FBECDBF08
:104C6000ED0108953BD080F09F3740F491110EF490
:104C70004DC060E070E080E89FE3089526F01B16C9
:104C8000611D711D811D01C01BC0882371F4772334
:104C900021F09850872B762F07C0662311F49927AF
:104CA0000DC09051862B70E060E02AF09A95660F57
:104CB000771F881FDAF7880F9695879597F90895DB
:104CC0009F3F31F0915020F4879577956795B79580
:104CD000880F911D9695879597F9089525D0A0F096
:104CE000BEE7B91788F4BB279F3860F41616B11DCC
:104CF000672F782F8827985FF7CF869577956795E8
:104D0000B11D93959639C8F30895E894BB2766279B
:104D10007727CB0197F9089557FD9058440F551FF9
:104D200059F05F3F71F04795880F97FB991F61F02D
:104D30009F3F79F087950895121613061406551FA4
:104D4000F2CF4695F1DF08C0161617061806991F10
:104D5000F1CF86957105610508940895F894FFCF09
:104D600048656C6C6F2041686D65640057726F6EAA
:104D7000672050617373776F726400000000000059
:104D800000000000010202030303030404040404FE
:104D900004040405050505050505050505050505C6
:104DA00005050506060606060606060606060606A6
:104DB0000606060606060606060606060606060693
:104DC0000606060707070707070707070707070776
:104DD0000707070707070707070707070707070763
:104DE0000707070707070707070707070707070753
:104DF0000707070707070707070707070707070743
:104E00000707070808080808080808080808080825
:104E10000808080808080808080808080808080812
:104E20000808080808080808080808080808080802
:104E300008080808080808080808080808080808F2
:104E400008080808080808080808080808080808E2
:104E500008080808080808080808080808080808D2
:104E600008080808080808080808080808080808C2
:104E700008080808080808080808080808080808B2
:104E800008080801010000000800000040000000C0
:104E900000010000000400000102030405060708E9
:084EA000090A0B0C0D0E4E4631
:00000001FF
